{
  "contractName": "Staff_checkin",
  "abi": [
    {
      "constant": true,
      "inputs": [
        {
          "name": "",
          "type": "uint256"
        }
      ],
      "name": "staff",
      "outputs": [
        {
          "name": "",
          "type": "address"
        }
      ],
      "payable": false,
      "stateMutability": "view",
      "type": "function"
    },
    {
      "constant": false,
      "inputs": [
        {
          "name": "staffId",
          "type": "uint256"
        }
      ],
      "name": "checkin",
      "outputs": [
        {
          "name": "",
          "type": "uint256"
        }
      ],
      "payable": false,
      "stateMutability": "nonpayable",
      "type": "function"
    },
    {
      "constant": true,
      "inputs": [],
      "name": "getStaff",
      "outputs": [
        {
          "name": "",
          "type": "address[10]"
        }
      ],
      "payable": false,
      "stateMutability": "view",
      "type": "function"
    }
  ],
  "bytecode": "0x608060405234801561001057600080fd5b506102d8806100206000396000f300608060405260043610610057576000357c0100000000000000000000000000000000000000000000000000000000900463ffffffff1680631d49c03c1461005c5780638a021f1d146100af578063e4ba15181461011c575b600080fd5b34801561006857600080fd5b5061007161015d565b6040518082600a60200280838360005b8381101561009c578082015181840152602081019050610081565b5050505090500191505060405180910390f35b3480156100bb57600080fd5b506100da600480360381019080803590602001909291905050506101de565b604051808273ffffffffffffffffffffffffffffffffffffffff1673ffffffffffffffffffffffffffffffffffffffff16815260200191505060405180910390f35b34801561012857600080fd5b5061014760048036038101908080359060200190929190505050610213565b6040518082815260200191505060405180910390f35b610165610288565b6000600a806020026040519081016040528092919082600a80156101d4576020028201915b8160009054906101000a900473ffffffffffffffffffffffffffffffffffffffff1673ffffffffffffffffffffffffffffffffffffffff168152602001906001019080831161018a575b5050505050905090565b600081600a811015156101ed57fe5b016000915054906101000a900473ffffffffffffffffffffffffffffffffffffffff1681565b6000808210158015610226575060098211155b151561023157600080fd5b33600083600a8110151561024157fe5b0160006101000a81548173ffffffffffffffffffffffffffffffffffffffff021916908373ffffffffffffffffffffffffffffffffffffffff160217905550819050919050565b61014060405190810160405280600a906020820280388339808201915050905050905600a165627a7a7230582022114c3a62f3da2fce5691cc7581807c19d0caecbb4dc6d56cca9ab1fa70ec940029",
  "source": "// The required minimum version of Solidity needed to compile the contract.\r\npragma solidity ^0.4.17;\r\n\r\ncontract Staff_checkin {\r\n  /* Contract-wide variable `adopters` of type array w/ length 16.\r\n  Each array element is of type `address`. The `public` keyword opens access\r\n  to the value of the variable externally.\r\n\r\n  This variable will hold the addresses of owners of our pets. \r\n  Holds Ether address of staff log. */\r\n  \r\n  address[10] public staff;\r\n\r\n  /* Publicly available functionn that will modify the adopters variable by\r\n  translating `petId` into an index of the adopters array.\r\n\r\n  Function headers can be generalized as:\r\n  `function FUNCTION_NAME (ARG_TYPE1 ARG_NAME1, ARG_TYPE2 ARG_NAME2, ...) FUNCTION_MODIFIER1 FUNCTION_MODIFIER2 ... returns (RETURN_TYPE)`\r\n\r\n  This function acts as the setter function for the `adopters` array by changing\r\n  the owner of a pet. */\r\n\r\n\r\n  function checkin (uint staffId) public returns (uint) {\r\n    // Check if the staffId is within bounds. (we only have 10 staff)\r\n    require(staffId >= 0 && staffId <= 9);\r\n\r\n    /* For given staff in array (using staffID) use `msg.sender` to retrieve the\r\n    address of the person or smart contract that called the function.\r\n    msg.sender is the address of the said staff */\r\n    staff[staffId] = msg.sender;\r\n\r\n    return staffId;\r\n  }\r\n\r\n  /* Returns the entire array of adopters. Must be explicitly written as default\r\n  getter functions for arrays can only retrieve specific elements\r\n\r\n  the `view` function modifier here indicates that the function cannot modify the\r\n  contract's behavior, much like a read-only function.\r\n\r\n  Return all staff\r\n  */\r\n\r\n  function getStaff() public view returns (address[10]) {\r\n    // We can return staff here because it was declared as a contract-wide variable.\r\n    return staff;\r\n  }\r\n}",
  "sourcePath": "C:\\Users\\janei\\OneDrive\\Desktop\\Projects\\github\\solidity_eth_htn\\pet-shop-tutorial\\contracts\\Adoption.sol",
  "compiler": {
    "name": "solc",
    "version": "0.4.24+commit.e67f0147.Emscripten.clang"
  },
  "schemaVersion": "2.0.1",
  "updatedAt": "2018-09-15T08:13:20.023Z"
}